{
  "contractName": "Ballot",
  "abi": [
    {
      "inputs": [],
      "stateMutability": "nonpayable",
      "type": "constructor"
    },
    {
      "inputs": [
        {
          "internalType": "uint256",
          "name": "",
          "type": "uint256"
        }
      ],
      "name": "proposals",
      "outputs": [
        {
          "internalType": "string",
          "name": "name",
          "type": "string"
        },
        {
          "internalType": "uint256",
          "name": "voteCount",
          "type": "uint256"
        }
      ],
      "stateMutability": "view",
      "type": "function",
      "constant": true
    },
    {
      "inputs": [
        {
          "internalType": "address",
          "name": "",
          "type": "address"
        }
      ],
      "name": "voters",
      "outputs": [
        {
          "internalType": "uint256",
          "name": "weight",
          "type": "uint256"
        },
        {
          "internalType": "bool",
          "name": "voted",
          "type": "bool"
        },
        {
          "internalType": "address",
          "name": "delegate",
          "type": "address"
        },
        {
          "internalType": "uint256",
          "name": "vote",
          "type": "uint256"
        }
      ],
      "stateMutability": "view",
      "type": "function",
      "constant": true
    },
    {
      "inputs": [
        {
          "internalType": "address",
          "name": "voter",
          "type": "address"
        }
      ],
      "name": "giveRightToVote",
      "outputs": [],
      "stateMutability": "nonpayable",
      "type": "function"
    },
    {
      "inputs": [
        {
          "internalType": "address",
          "name": "to",
          "type": "address"
        }
      ],
      "name": "delegate",
      "outputs": [],
      "stateMutability": "nonpayable",
      "type": "function"
    },
    {
      "inputs": [
        {
          "internalType": "uint256",
          "name": "proposalIndex",
          "type": "uint256"
        }
      ],
      "name": "vote",
      "outputs": [],
      "stateMutability": "nonpayable",
      "type": "function"
    },
    {
      "inputs": [],
      "name": "wininngProposal",
      "outputs": [
        {
          "internalType": "uint256",
          "name": "winningIndex",
          "type": "uint256"
        },
        {
          "internalType": "string",
          "name": "winnerName",
          "type": "string"
        }
      ],
      "stateMutability": "view",
      "type": "function",
      "constant": true
    }
  ],
  "bytecode": "0x60806040523480156200001157600080fd5b5033600260006101000a81548173ffffffffffffffffffffffffffffffffffffffff021916908373ffffffffffffffffffffffffffffffffffffffff160217905550600160405180604001604052806040518060400160405280600881526020017f706572736f6e30310000000000000000000000000000000000000000000000008152508152602001600081525090806001815401808255809150506001900390600052602060002090600202016000909190919091506000820151816000019080519060200190620000e792919062000204565b50602082015181600101555050600160405180604001604052806040518060400160405280600881526020017f706572736f6e303200000000000000000000000000000000000000000000000081525081526020016000815250908060018154018082558091505060019003906000526020600020906002020160009091909190915060008201518160000190805190602001906200018892919062000204565b506020820151816001015550506001600080600260009054906101000a900473ffffffffffffffffffffffffffffffffffffffff1673ffffffffffffffffffffffffffffffffffffffff1673ffffffffffffffffffffffffffffffffffffffff1681526020019081526020016000206000018190555062000319565b8280546200021290620002e3565b90600052602060002090601f01602090048101928262000236576000855562000282565b82601f106200025157805160ff191683800117855562000282565b8280016001018555821562000282579182015b828111156200028157825182559160200191906001019062000264565b5b50905062000291919062000295565b5090565b5b80821115620002b057600081600090555060010162000296565b5090565b7f4e487b7100000000000000000000000000000000000000000000000000000000600052602260045260246000fd5b60006002820490506001821680620002fc57607f821691505b60208210811415620003135762000312620002b4565b5b50919050565b61119180620003296000396000f3fe608060405234801561001057600080fd5b50600436106100625760003560e01c80630121b93f14610067578063013cf08b146100835780635c19a95c146100b4578063911e09ad146100d05780639e7b8d61146100ef578063a3ec138d1461010b575b600080fd5b610081600480360381019061007c9190610a6e565b61013e565b005b61009d60048036038101906100989190610a6e565b610284565b6040516100ab929190610b43565b60405180910390f35b6100ce60048036038101906100c99190610bd1565b610340565b005b6100d86106df565b6040516100e6929190610bfe565b60405180910390f35b61010960048036038101906101049190610bd1565b61085d565b005b61012560048036038101906101209190610bd1565b6109d6565b6040516101359493929190610c58565b60405180910390f35b60008060003373ffffffffffffffffffffffffffffffffffffffff1673ffffffffffffffffffffffffffffffffffffffff16815260200190815260200160002090506000816000015414156101c8576040517f08c379a00000000000000000000000000000000000000000000000000000000081526004016101bf90610ce9565b60405180910390fd5b8060010160009054906101000a900460ff161561021a576040517f08c379a000000000000000000000000000000000000000000000000000000000815260040161021190610d55565b60405180910390fd5b60018160010160006101000a81548160ff02191690831515021790555081816002018190555080600001546001838154811061025957610258610d75565b5b906000526020600020906002020160010160008282546102799190610dd3565b925050819055505050565b6001818154811061029457600080fd5b90600052602060002090600202016000915090508060000180546102b790610e58565b80601f01602080910402602001604051908101604052809291908181526020018280546102e390610e58565b80156103305780601f1061030557610100808354040283529160200191610330565b820191906000526020600020905b81548152906001019060200180831161031357829003601f168201915b5050505050908060010154905082565b60008060003373ffffffffffffffffffffffffffffffffffffffff1673ffffffffffffffffffffffffffffffffffffffff16815260200190815260200160002090508060010160009054906101000a900460ff16156103d4576040517f08c379a00000000000000000000000000000000000000000000000000000000081526004016103cb90610ed6565b60405180910390fd5b3373ffffffffffffffffffffffffffffffffffffffff168273ffffffffffffffffffffffffffffffffffffffff161415610443576040517f08c379a000000000000000000000000000000000000000000000000000000000815260040161043a90610f42565b60405180910390fd5b5b600073ffffffffffffffffffffffffffffffffffffffff166000808473ffffffffffffffffffffffffffffffffffffffff1673ffffffffffffffffffffffffffffffffffffffff16815260200190815260200160002060010160019054906101000a900473ffffffffffffffffffffffffffffffffffffffff1673ffffffffffffffffffffffffffffffffffffffff16146105b1576000808373ffffffffffffffffffffffffffffffffffffffff1673ffffffffffffffffffffffffffffffffffffffff16815260200190815260200160002060010160019054906101000a900473ffffffffffffffffffffffffffffffffffffffff1691508173ffffffffffffffffffffffffffffffffffffffff163373ffffffffffffffffffffffffffffffffffffffff1614156105ac576040517f08c379a00000000000000000000000000000000000000000000000000000000081526004016105a390610fae565b60405180910390fd5b610444565b60018160010160006101000a81548160ff021916908315150217905550818160010160016101000a81548173ffffffffffffffffffffffffffffffffffffffff021916908373ffffffffffffffffffffffffffffffffffffffff16021790555060008060008473ffffffffffffffffffffffffffffffffffffffff1673ffffffffffffffffffffffffffffffffffffffff1681526020019081526020016000209050600115158160010160009054906101000a900460ff16151514156106ba578160000154600182600201548154811061068e5761068d610d75565b5b906000526020600020906002020160010160008282546106ae9190610dd3565b925050819055506106da565b81600001548160000160008282546106d29190610dd3565b925050819055505b505050565b600060606000805b600180549050811015610760576001818154811061070857610707610d75565b5b90600052602060002090600202016001015482101561074d576001818154811061073557610734610d75565b5b90600052602060002090600202016001015491508093505b808061075890610fce565b9150506106e7565b5060008114156107a7576040518060400160405280600681526020017f4e6f626f647900000000000000000000000000000000000000000000000000008152509150610858565b600183815481106107bb576107ba610d75565b5b906000526020600020906002020160000180546107d790610e58565b80601f016020809104026020016040519081016040528092919081815260200182805461080390610e58565b80156108505780601f1061082557610100808354040283529160200191610850565b820191906000526020600020905b81548152906001019060200180831161083357829003601f168201915b505050505091505b509091565b60008060008373ffffffffffffffffffffffffffffffffffffffff1673ffffffffffffffffffffffffffffffffffffffff1681526020019081526020016000209050600260009054906101000a900473ffffffffffffffffffffffffffffffffffffffff1673ffffffffffffffffffffffffffffffffffffffff163373ffffffffffffffffffffffffffffffffffffffff161461092f576040517f08c379a000000000000000000000000000000000000000000000000000000000815260040161092690611063565b60405180910390fd5b8060010160009054906101000a900460ff1615610981576040517f08c379a0000000000000000000000000000000000000000000000000000000008152600401610978906110cf565b60405180910390fd5b60008160000154146109c8576040517f08c379a00000000000000000000000000000000000000000000000000000000081526004016109bf9061113b565b60405180910390fd5b600181600001819055505050565b60006020528060005260406000206000915090508060000154908060010160009054906101000a900460ff16908060010160019054906101000a900473ffffffffffffffffffffffffffffffffffffffff16908060020154905084565b600080fd5b6000819050919050565b610a4b81610a38565b8114610a5657600080fd5b50565b600081359050610a6881610a42565b92915050565b600060208284031215610a8457610a83610a33565b5b6000610a9284828501610a59565b91505092915050565b600081519050919050565b600082825260208201905092915050565b60005b83811015610ad5578082015181840152602081019050610aba565b83811115610ae4576000848401525b50505050565b6000601f19601f8301169050919050565b6000610b0682610a9b565b610b108185610aa6565b9350610b20818560208601610ab7565b610b2981610aea565b840191505092915050565b610b3d81610a38565b82525050565b60006040820190508181036000830152610b5d8185610afb565b9050610b6c6020830184610b34565b9392505050565b600073ffffffffffffffffffffffffffffffffffffffff82169050919050565b6000610b9e82610b73565b9050919050565b610bae81610b93565b8114610bb957600080fd5b50565b600081359050610bcb81610ba5565b92915050565b600060208284031215610be757610be6610a33565b5b6000610bf584828501610bbc565b91505092915050565b6000604082019050610c136000830185610b34565b8181036020830152610c258184610afb565b90509392505050565b60008115159050919050565b610c4381610c2e565b82525050565b610c5281610b93565b82525050565b6000608082019050610c6d6000830187610b34565b610c7a6020830186610c3a565b610c876040830185610c49565b610c946060830184610b34565b95945050505050565b7f486173206e6f20526967687420746f20766f7465000000000000000000000000600082015250565b6000610cd3601483610aa6565b9150610cde82610c9d565b602082019050919050565b60006020820190508181036000830152610d0281610cc6565b9050919050565b7f416c726561647920566f7465642e000000000000000000000000000000000000600082015250565b6000610d3f600e83610aa6565b9150610d4a82610d09565b602082019050919050565b60006020820190508181036000830152610d6e81610d32565b9050919050565b7f4e487b7100000000000000000000000000000000000000000000000000000000600052603260045260246000fd5b7f4e487b7100000000000000000000000000000000000000000000000000000000600052601160045260246000fd5b6000610dde82610a38565b9150610de983610a38565b9250827fffffffffffffffffffffffffffffffffffffffffffffffffffffffffffffffff03821115610e1e57610e1d610da4565b5b828201905092915050565b7f4e487b7100000000000000000000000000000000000000000000000000000000600052602260045260246000fd5b60006002820490506001821680610e7057607f821691505b60208210811415610e8457610e83610e29565b5b50919050565b7f416c726561647920766f7465642e000000000000000000000000000000000000600082015250565b6000610ec0600e83610aa6565b9150610ecb82610e8a565b602082019050919050565b60006020820190508181036000830152610eef81610eb3565b9050919050565b7f4e6f7420616c6c6f77656420746f2064656c696761746520796f757273656c66600082015250565b6000610f2c602083610aa6565b9150610f3782610ef6565b602082019050919050565b60006020820190508181036000830152610f5b81610f1f565b9050919050565b7f466f756e64206c6f6f7020696e2064656c65676174696f6e0000000000000000600082015250565b6000610f98601883610aa6565b9150610fa382610f62565b602082019050919050565b60006020820190508181036000830152610fc781610f8b565b9050919050565b6000610fd982610a38565b91507fffffffffffffffffffffffffffffffffffffffffffffffffffffffffffffffff82141561100c5761100b610da4565b5b600182019050919050565b7f4974206973206e6f74206f776e65720000000000000000000000000000000000600082015250565b600061104d600f83610aa6565b915061105882611017565b602082019050919050565b6000602082019050818103600083015261107c81611040565b9050919050565b7f416c726561647920766f74656400000000000000000000000000000000000000600082015250565b60006110b9600d83610aa6565b91506110c482611083565b602082019050919050565b600060208201905081810360008301526110e8816110ac565b9050919050565b7f4e6f7420726967687420746f20766f7465000000000000000000000000000000600082015250565b6000611125601183610aa6565b9150611130826110ef565b602082019050919050565b6000602082019050818103600083015261115481611118565b905091905056fea2646970667358221220d8d208bd8a56cd8a386a25225de21c467d3f34d7cd7aecb1f3add9a6d46e1aa364736f6c634300080b0033",
  "immutableReferences": {},
  "source": "// SPDX-License-Identifier: GPL-3.0\r\npragma solidity >=0.8.0 < 0.9.0;\r\n\r\ncontract Ballot{\r\n    struct Voter{\r\n        uint weight;\r\n        bool voted;\r\n        address delegate;\r\n        uint vote;\r\n    }\r\n\r\n    struct Proposal{\r\n        string name;\r\n        uint voteCount;\r\n    }\r\n\r\n    mapping(address => Voter) public voters;\r\n    Proposal[] public proposals;\r\n    address owner;\r\n\r\n    constructor(){\r\n        owner = msg.sender;\r\n        proposals.push(Proposal({\r\n                name : \"person01\",\r\n                voteCount : 0\r\n            }));\r\n        proposals.push(Proposal({\r\n                name : \"person02\",\r\n                voteCount : 0\r\n            }));\r\n        voters[owner].weight = 1;\r\n    }\r\n\r\n    function giveRightToVote(address voter) public{\r\n        Voter storage temp = voters[voter];\r\n        require(msg.sender == owner, \"It is not owner\");\r\n        require(!temp.voted, \"Already voted\");\r\n        require(temp.weight == 0, \"Not right to vote\");\r\n        temp.weight = 1;\r\n    }\r\n\r\n    function delegate(address to) public{\r\n        Voter storage sender = voters[msg.sender];\r\n        require(!sender.voted, \"Already voted.\");\r\n        require(to != msg.sender, \"Not allowed to deligate yourself\");\r\n\r\n        while(voters[to].delegate != address(0)){\r\n            to = voters[to].delegate;\r\n            require(msg.sender != to, \"Found loop in delegation\");\r\n        }\r\n        \r\n        sender.voted = true;\r\n        sender.delegate = to;\r\n        Voter storage delegate_ = voters[to];\r\n        if(delegate_.voted == true){\r\n            proposals[delegate_.vote].voteCount += sender.weight;\r\n        } else{\r\n            delegate_.weight += sender.weight;\r\n        }\r\n        \r\n    }\r\n\r\n    function vote(uint proposalIndex) public{\r\n        Voter storage voter = voters[msg.sender];\r\n        require(voter.weight != 0, \"Has no Right to vote\");\r\n        require(!voter.voted,\"Already Voted.\");\r\n        voter.voted = true;\r\n        voter.vote = proposalIndex;\r\n\r\n        proposals[proposalIndex].voteCount += voter.weight;\r\n    }\r\n\r\n    function wininngProposal() public view returns(uint winningIndex, string memory winnerName){\r\n        uint maxVoteCount = 0;\r\n        for(uint i=0;i<proposals.length;i++)\r\n            if(maxVoteCount < proposals[i].voteCount){\r\n                maxVoteCount = proposals[i].voteCount;\r\n                winningIndex = i;\r\n            }\r\n        if(maxVoteCount== 0)\r\n            winnerName = \"Nobody\";\r\n        else \r\n            winnerName = proposals[winningIndex].name;\r\n    }\r\n\r\n}\r\n",
  "sourcePath": "E:\\Git Projects\\Truffle_Voting\\contracts\\Ballot.sol",
  "compiler": {
    "name": "solc",
    "version": "0.8.11+commit.d7f03943.Emscripten.clang"
  },
  "schemaVersion": "3.4.5",
  "updatedAt": "2022-03-04T14:29:49.892Z",
  "networkType": "ethereum",
  "devdoc": {
    "kind": "dev",
    "methods": {},
    "version": 1
  },
  "userdoc": {
    "kind": "user",
    "methods": {},
    "version": 1
  }
}